:020000040000FA
:0400000007EF09F00D
:100F0000006800009BEC08F0010ED2EC08F090B4F1
:100F10008CEF07F08EEF07F0AAEF07F08680150E32
:100F20000E6E4B0E0D6EBE0EE82EFED70D2EFCD7AC
:100F30000E2EFAD700D08690150E0E6E4B0E0D6E4B
:100F4000BE0EE82EFED70D2EFCD70E2EFAD700D0FF
:100F5000C4EF07F08680030E0E6E080E0D6E770E3E
:100F6000E82EFED70D2EFCD70E2EFAD700F0869075
:100F7000030E0E6E080E0D6E770EE82EFED70D2EA8
:100F8000FCD70E2EFAD700F0DEEC08F00009D8B43A
:100F9000CCEF07F0CEEF07F087EF07F086EC08F014
:100FA0000F6E71EC08F00009D8B4D9EF07F0DBEF51
:100FB00007F087EF07F00F50D2EC08F087EF07F04B
:100FC00000EF00F0000E866E000E856E000E826E41
:100FD000000E836E000E846E060E8B6E8768886826
:100FE000BF0E896EF70E8A6E0F0121697F0E1C6F8E
:100FF0001469030E296F0C69000E206F000E286F14
:10100000000E136F000E0B6F000E1B6F000E276F8C
:10101000000E0A6F000E126F000E1A6F000E1F6F87
:101020000969116919691E69070E266F0869106937
:1010300018691D690F0E256F170E0E01B06F070E90
:10104000FD6F090EF86F1200000E656E000E666EE1
:10105000000E676E000E686E000E636E000E646E0A
:10106000000E616E000E0F015A6F000E586F000ED9
:10107000596F000E546F000E556F000E566F000E24
:10108000606E000E536F000E516F310E526F840E62
:101090005B6F000E576F1200080E9E6E900E9C6ED6
:1010A000240E9D6E820E9A6E060E9B6E000E0A6EC8
:1010B000000E0B6E000E0C6EF9EC08F0000E0A6EBE
:1010C000000E0B6E000E0C6EF2EC08F0000E0A6EB5
:1010D000000E0B6E000E0C6E00EC09F0000E106E90
:1010E0001200000E0A6E0E01C8A979EF08F07BEF1E
:1010F00008F084EF08F09DAA80EF08F082EF08F076
:1011000084EF08F0010E0A6E0A5012000E01C8ABFF
:101110008CEF08F08EEF08F086EF08F0000E106EEE
:101120009CA295EF08F097EF08F099EF08F09C98D3
:101130009C8898501200B8EC08F0E2EC07F0C6EC7E
:1011400008F024EC08F0E9EC08F0AAEC08F04CEC0C
:1011500008F01200010EBE6E000EBD6E000EBF6ED6
:10116000BB68000EBA6E0E01C993800EBC6E1200F1
:10117000000E0E01DC6F000EDD6F000EDE6F000E44
:10118000DF6F000EE06F000EE16F1200600E0E01C7
:10119000D36F000ED56F000ED76F080ED96F000EFB
:1011A000D86F12000A6E0E01C8A9D9EF08F0DBEF64
:1011B00008F0D3EF08F00AC099FF12000E01C8BB77
:1011C000E4EF08F0E7EF08F0010EE8EF08F0000E9A
:1011D0001200800EA46E7F0EA36EC00EA26ECF0E04
:1011E000AD1612000AC004F00BC005F00CC006F0EA
:1011F00012000AC007F00BC008F00CC009F0120082
:101200000AC001F00BC002F00CC003F01200106A1B
:081210000F6A000182EF07F0F4
:020000040020DA
:10000000FFFFFFFFFFFFFFFFFFFFFFFFFFFFFFFF00
:10001000FFFFFFFFFFFFFFFFFFFFFFFFFFFFFFFFF0
:10002000FFFFFFFFFFFFFFFFFFFFFFFFFFFFFFFFE0
:10003000FFFFFFFFFFFFFFFFFFFFFFFFFFFFFFFFD0
:10004000FFFFFFFFFFFFFFFFFFFFFFFFFFFFFFFFC0
:10005000FFFFFFFFFFFFFFFFFFFFFFFFFFFFFFFFB0
:10006000FFFFFFFFFFFFFFFFFFFFFFFFFFFFFFFFA0
:10007000FFFFFFFFFFFFFFFFFFFFFFFFFFFFFFFF90
:10008000FFFFFFFFFFFFFFFFFFFFFFFFFFFFFFFF80
:10009000FFFFFFFFFFFFFFFFFFFFFFFFFFFFFFFF70
:1000A000FFFFFFFFFFFFFFFFFFFFFFFFFFFFFFFF60
:1000B000FFFFFFFFFFFFFFFFFFFFFFFFFFFFFFFF50
:1000C000FFFFFFFFFFFFFFFFFFFFFFFFFFFFFFFF40
:1000D000FFFFFFFFFFFFFFFFFFFFFFFFFFFFFFFF30
:1000E000FFFFFFFFFFFFFFFFFFFFFFFFFFFFFFFF20
:1000F000FFFFFFFFFFFFFFFFFFFFFFFFFFFFFFFF10
:020000040030CA
:0C0000008CFEFFFF9FFFFFFFFFFFFFFFD4
:00000001FF
